:100000000C942A000C94D0020C94F9020C94220354
:100010000C9447000C9447000C9447000C94470044
:100020000C9447000C9447000C9447000C94470034
:100030000C9447000C9447000C9447000C94470024
:100040000C9447000C9447000C9447000C94470014
:100050000C94470011241FBECFE5D8E0DEBFCDBF12
:1000600010E0A0E6B0E0E0ECF6E002C005900D92F2
:10007000A038B107D9F720E0A0E8B0E001C01D9298
:10008000A638B207E1F70E9457030C945E030C9464
:100090000000CF93DF931F92CDB7DEB781E0898355
:1000A00000E010E0E12CF12C20C0BE016F5F7F4F1B
:1000B0008FE10E94BF008981811117C024E0E21600
:1000C000F1048CF488E08E0D0E944F038FEFE81A44
:1000D000F80A9FEF22E587E0915020408040E1F749
:1000E00000C0000002C001E010E001151105E9F2B6
:1000F0000F2EF3E0EF2EF12CF02D1DC0BE016F5F2F
:100100007F4F8FE10E94BF008981811114C08BE075
:100110008E190E94530391E0E91AF10852F02FEF73
:1001200082E597E0215080409040E1F700C0000058
:1001300002C000E010E00115110501F72FEF82E584
:1001400097E0215080409040E1F700C00000AACF26
:1001500088E00E944B0389E00E944B038AE00E94E2
:100160004B038BE00E944B038FE10E94BB008AE1AE
:100170000E94BB00089562E00E94C20008950E94A0
:1001800082020895803208F009C1982F96959695BD
:1001900096958770613009F459C020F0623009F4F7
:1001A000A9C0FEC09130C9F028F0923049F19330D7
:1001B000D1F1F8C04AB321E030E0B90102C0660FC6
:1001C000771F8A95E2F7CB01942F982B9ABB9BB3AC
:1001D000809589238BBB80E0089547B321E030E010
:1001E000B90102C0660F771F8A95E2F7CB01942F01
:1001F000982B97BB98B38095892388BB80E008959E
:1002000044B321E030E0B90102C0660F771F8A9540
:10021000E2F7CB01942F982B94BB95B3809589235B
:1002200085BB80E0089541B321E030E0B90102C010
:10023000660F771F8A95E2F7CB01942F982B91BB1D
:1002400092B38095892382BB80E008959130C9F0F4
:1002500028F0923049F19330D1F1A6C04AB321E0A1
:1002600030E0B90102C0660F771F8A95E2F7CB0133
:100270008095942F98239ABB9BB389238BBB80E0F6
:10028000089547B321E030E0B90102C0660F771F3F
:100290008A95E2F7CB018095942F982397BB98B36A
:1002A000892388BB80E0089544B321E030E0B901A0
:1002B00002C0660F771F8A95E2F7CB018095942FD5
:1002C000982394BB95B3892385BB80E0089541B3FF
:1002D00021E030E0B90102C0660F771F8A95E2F78E
:1002E000CB018095942F982391BB92B3892382BB35
:1002F00080E008959130C9F028F0923049F19330B0
:10030000D1F154C04AB321E030E0B90102C0660F18
:10031000771F8A95E2F7CB01962F909594239ABB8D
:100320009BB3892B8BBB80E0089547B321E030E07D
:10033000B90102C0660F771F8A95E2F7CB01962FAD
:100340009095942397BB98B3892B88BB80E0089540
:1003500044B321E030E0B90102C0660F771F8A95EF
:10036000E2F7CB01962F9095942394BB95B3892BFC
:1003700085BB80E0089541B321E030E0B90102C0BF
:10038000660F771F8A95E2F7CB01962F90959423FD
:1003900091BB92B3892B82BB80E0089582E00895DF
:1003A00084E0089581E0089581E0089580E0089553
:1003B000CF93C0E009C0EC2FF0E0E05AFF4F60811E
:1003C0008C2F0E94C200CF5FC032A8F3CF91089556
:1003D000803208F08FC0982F9695969596958770E5
:1003E000662309F443C0613009F086C09130A1F062
:1003F00028F09230F9F0933059F180C04BB321E0EE
:1004000030E0B90102C0660F771F8A95E2F7CB0191
:10041000842B8BBB80E0089548B321E030E0B90124
:1004200002C0660F771F8A95E2F7CB01842B88BB49
:1004300080E0089545B321E030E0B90102C0660FC5
:10044000771F8A95E2F7CB01842B85BB80E0089566
:1004500042B321E030E0B90102C0660F771F8A95F0
:10046000E2F7CB01842B82BB80E008959130A9F0A4
:1004700028F0923009F1933071F142C04BB321E082
:1004800030E0B90102C0660F771F8A95E2F7CB0111
:10049000809584238BBB80E0089548B321E030E051
:1004A000B90102C0660F771F8A95E2F7CB018095EC
:1004B000842388BB80E0089545B321E030E0B90192
:1004C00002C0660F771F8A95E2F7CB0180958423DF
:1004D00085BB80E0089542B321E030E0B90102C05D
:1004E000660F771F8A95E2F7CB018095842382BB44
:1004F00080E0089582E0089583E0089581E0089502
:1005000081E00895FB011082803208F045C0982FE9
:1005100096959695969587709130A1F028F0923037
:10052000F9F0933059F13AC029B330E0A90102C083
:10053000559547958A95E2F7CA018170FB01808342
:1005400080E0089526B330E0A90102C05595479593
:100550008A95E2F7CA018170FB01808380E00895EB
:1005600023B330E0A90102C0559547958A95E2F77B
:10057000CA018170FB01808380E0089520B330E0E0
:10058000A90102C0559547958A95E2F7CA01817085
:10059000FB01808380E0089582E0089581E0089562
:1005A0001F920F920FB60F9211242F933F934F93E8
:1005B0005F936F937F938F939F93AF93BF93EF93CB
:1005C000FF93E0918400F0918500309709F0099540
:1005D000FF91EF91BF91AF919F918F917F916F911B
:1005E0005F914F913F912F910F900FBE0F901F90F1
:1005F00018951F920F920FB60F9211242F933F93CD
:100600004F935F936F937F938F939F93AF93BF931A
:10061000EF93FF93E0918200F0918300309709F00F
:100620000995FF91EF91BF91AF919F918F917F912C
:100630006F915F914F913F912F910F900FBE0F904F
:100640001F9018951F920F920FB60F9211242F939F
:100650003F934F935F936F937F938F939F93AF934A
:10066000BF93EF93FF93E0918000F091810030976A
:1006700009F00995FF91EF91BF91AF919F918F91F3
:100680007F916F915F914F913F912F910F900FBE8E
:100690000F901F90189560E00E94C200089561E0DD
:1006A0000E94E801089560E00E94E80108950E9418
:1006B000D8010E94A8000E944900FFCFF894FFCF04
:1006C000000000000000000000000000000000002A
:1006D000000000000000000000000000000000001A
:00000001FF
